:020000040800F2
:1000000058220020FD01000815850008756F0008C2
:10001000F9810008FB460008379F00080000000037
:100020000000000000000000000000001D95000816
:10003000ED47000800000000658E00088D9600085E
:10004000170200081702000817020008170200082C
:10005000170200081702000817020008170200081C
:10006000170200080D4800081702000817020008D0
:1000700017020008170200081702000817020008FC
:1000800079470008854700082D4500081702000839
:10009000170200081702000817020008134800089A
:1000A00017020008170200081702000817020008CC
:1000B00017020008170200081702000817020008BC
:1000C00017020008170200081702000817020008AC
:1000D0001702000817020008299D000817020008EF
:1000E000EF470008170200081702000800F002F8A6
:1000F00000F075F80AA090E8000C82448344AAF14D
:100100000107DA4501D100F06AF8AFF2090EBAE84A
:100110000F0013F0010F18BFFB1A43F0010318473B
:1001200020070100400701000A444FF0000C10F8BE
:10013000013B13F0070408BF10F8014B1D1108BF65
:1001400010F8015B641E05D010F8016B641E01F805
:10015000016BF9D113F0080F1EBF10F8014BAD1C55
:100160000C1B09D16D1E58BF01F801CBFAD505E073
:1001700014F8016B01F8016B6D1EF9D59142D6D3CD
:10018000704700000023002400250026103A28BFF5
:1001900078C1FBD8520728BF30C148BF0B607047F9
:1001A00066290EF08A86642902F0AA82732903F078
:1001B0000E80002070471FB59DE8030003F0E4FBAC
:1001C00003F01CF80400002000210DF06BFCE0603F
:1001D00003F018F91FBD10B503F07DF910BD03F051
:1001E000B1F91146FFF7E7FF0CF07EFC03F0A0FB2E
:1001F00003B4FFF7F0FF03BC03F038FD0948804764
:1002000009480047FEE7FEE7FEE7FEE7FEE7FEE7F8
:10021000FEE7FEE7FEE7FEE704480549054A064B10
:100220007047000009970008ED000008581C0020E6
:1002300058220020581E0020581E002010B5F949F1
:10024000C4074FF040434FF0804205D08B66CB6629
:10025000C1E91C328A67CA67840709D5C1F8003131
:10026000C1F80431C1E94232C1F81021C1F81421AA
:10027000400709D5C1F89831C1F89C31C1E968320D
:10028000C1F8A821C1F8AC2110BD2DE9F14F82B011
:10029000002102988A468946806F00287DD000227E
:1002A0000020401C0428FCDB02984FF0000C00EBFF
:1002B000C203D3E90010A1FB0167D3E9065400FB98
:1002C000017701FB0077CDE90067A646AE1B64EB22
:1002D0000704AB460327A6FB075804FB078406FB6D
:1002E0000C44DDE90067AD197C41A5FB016704FB07
:1002F000017405FB0045D3E90C47341B65EB07058A
:10030000CDE900455D46A5FB05670324A6FB04581F
:100310000EFB0B770BFB0E7707FB048406FB0C44EC
:10032000D3E91263761B63EB04034C18A4FB017C36
:1003300040EB000505FB01C504FB0055A7FB014C84
:1003400005FB01C507FB0055A4FB017C05FB01C5AE
:1003500004FB0054F6196341DDE90045AD0045EAB0
:100360009475A400A4FB017C05FB01C104FB0014EF
:10037000F01B73EB040103D50023404263EB010142
:10038000BAEB000479EB010301DA82468946521C7C
:10039000032A85DB5046494600E010E00EF09FFA44
:1003A000A149896B0EF082F90EF044FD9D4AD2F806
:1003B0000C2203B09200BDE8F04F02F020B90020FB
:1003C00003B00146BDE8F08F2DE9F14F0020009AFF
:1003D0000146926FF2B300240022521C042AFCDB77
:1003E000009A02EBC405AA46D5E90029A2FB023C0B
:1003F000D5E906769E46FB1A0325A3FB057809FB83
:1004000002CC02FB09CB66EB0B0606FB05854FF021
:10041000000C03FB0C5617EB0E03A3FB027C46EB10
:100420000B0606FB02C203FB0923DAE90C25BA1A04
:10043000AB4103D50025524265EB0303851A71EBEE
:10044000030501DA10461946641C032CC4DB0EF0C8
:1004500046FA00E00EE07449896B0EF027F90EF0C1
:10046000E9FC704AD2F80C22BDE8F84F02EB4202D8
:1004700002F0C5B800200146BDE8F88F2DE9FE4323
:10048000684D80460024D5F810626F4605EBC40124
:100490003246D1E9020102F09FF805EB8401B1F880
:1004A00084100904401847F8240004F10104032CC7
:1004B000ECDB5C489821083002F004FB0120FFF7D8
:1004C000BDFE95F8E8010199042807D1D5F8180276
:1004D000B0F5201F02DD052085F8E801524C009898
:1004E000636AC11A01D40E4600E01E1A0198A26A7E
:1004F000801A01D4074601E0019FD71BBE4206DDEA
:10050000002901D4084606E00098181A03E00028E4
:1005100001D50198101A029AE16A521A01D41346C1
:1005200001E0029BCB1A834205DB002A01D410466E
:1005300001E00298081AD8F824100BF000FED5F854
:100540001812814206DD032168460CF0C7F902202B
:100550000CF016FA009860620198A0620298E062BE
:10056000BDE8FE83304AC2E9020170472E4AC2E963
:10057000060170472C4AC2E904017047294AD2F8A3
:10058000E0310360D2E97402C1E900027047254AF4
:10059000D2F8E0310360D2E97602C1E90002704787
:1005A0002DE9FE4781460020EA468A6F22B901EB19
:1005B000800339F91020DA6701EB800239F9103035
:1005C000D46F1D1B4AF82050136E9D4200DD156646
:1005D000D36E9D4200DAD5660123002422464FEAFD
:1005E000E578A3FB056704FB057403FB0844334669
:1005F00002EB420601EBC60606EBC00CDCE9007616
:10060000FF186641CCE90076521C042AE9DB401C45
:100610000328CADB886F401C88670120C1F890005E
:10062000BDE8FE87381400209816002030B500235E
:1006300002EB830550F823405B1CEC66032BF7DBD1
:10064000C2F88810916F79B1002102EB810450F853
:100650002130E56F5B1B00D55B42256E9D4200DAC1
:100660002366491C0329F0DB906F401C9067012032
:10067000C2F8900030BD10B500210B4600EB81029E
:10068000491CD46ED46713660329F7DBD0F88810B1
:1006900040F8783FC0E9051310BDD0E92210081AD0
:1006A00070470146D1E91802824200DB1046896E8C
:1006B000814200DB084670472DE9F0478046501E16
:1006C000012686408946C2F12007404601F097FF87
:1006D00004460D46404649463A4601F07DFF3A46FB
:1006E00001F08DFFB04203DD641C45F1000505E01B
:1006F0007142884202DA641E45F1FF3520462946E0
:10070000BDE8F087F7490020086248628862C86245
:10071000086448648864C864086348638863C8637D
:10072000086548658865C865704730B5EE4AD2F8F7
:10073000483223B1D2E990542D1A8C4101DAC2E932
:1007400090015B1CC2F8483230BD30B5E64AD2F8A1
:10075000583223B1D2E994542D1A8C4101DAC2E9FE
:1007600094015B1CC2F8583230BD30B5DE4AD2F875
:1007700028322BB1D2E98845041B71EB050401DA5C
:10078000C2E988015B1CC2F8283230BD30B5D64AB8
:10079000D2F838322BB1D2E98C45041B71EB050439
:1007A00001DAC2E98C015B1CC2F8383230BD2DE998
:1007B000F0470246CC48012508308046C36E016EE2
:1007C000046FC91A436E1B1B8B4200DB1946836EF4
:1007D000D8F87400181A884200DB0146C14F603710
:1007E000F86B884204DA002400F00AFA204687E712
:1007F000108E0124BC4EC0054FF000010ED5D6F876
:1008000080303068834209DBB2F87420D20506D507
:10081000D6F8B021824201DB052400E00C4674B317
:10082000600719D5AF48C8388146FFF72EFD000D87
:1008300040EA01300915C6E97601D7E904321B1AEE
:100840008A4102DA0025FFF7A1FF9821484602F00D
:1008500039F90420FFF7F2FCE0070ED04046FFF71D
:1008600014FDC6E97C01D7E906340246181A8C410A
:1008700003DA00251046FFF778FF284640E7FFE738
:1008800002203DE71EB5044690F83000C0F3811009
:10089000032804D19449201D0831FFF781FE94F804
:1008A0007400C0F38110032805D18E4904F148007B
:1008B000C839FFF775FED4F8B8008B4AC0F381132E
:1008C000A0326946032B0FD0C0F3411003281AD180
:1008D000002004EB8003D3F8A0309B1341F82030B4
:1008E000401C0328F5DB09E0002004EB4003B3F9CA
:1008F0008C3041F82030401C0328F6DB6846D4F8E1
:10090000C010FFF793FE1EBD2DE9F04705460020FD
:10091000296BCA0567D501F05001402900D101209B
:1009200095F8741001F05001402900D1012095F88C
:10093000B8106D4C01F05001402900D030B100F0EA
:100940005FF90020C4F8E00184F8E801654ED4F8AE
:100950000812E86A6036814225D0C4F808020A28E5
:10096000306B0ADA40002060716B491CC4F80C122D
:100970000DF09AFF0DF080F804E02060706BC4F871
:100980000C02B06BC4F81402D4F80C02C0F11000D1
:10099000C4F810024FF48040C4F8180296F83410DE
:1009A00019208840F0632846FFF76CFF94F8E8119F
:1009B000DFF8349105274FF0020809F1A009072953
:1009C00011D2DFE801F0041127305E7E8500D4F8F3
:1009D000E001411CC4F8E0110A2804DB00F010F922
:1009E000012084F8E80186E0D4F89800012810D1AD
:1009F0002846FFF7DCFE10B1012803D004E084F89C
:100A0000E87101E084F8E8814846FFF734FEFFF71B
:100A100079FE70E0032084F8E8012846FFF72EFDF8
:100A200000F0EEF867E02846FFF7C1FEF0B30128BA
:100A300061D1B5F8B8004FF00403C00515D548469C
:100A4000FFF72FFE0146C017C4E97410D6E902C2B1
:100A5000BCEB0101824102DA84F8E87108E0484603
:100A6000FFF71BFE316A884202D384F8E83124E0A4
:100A7000F4E97601FFF769FED4E90601FFF755FEB8
:100A800039E0B5F8B800C0050BD54846FFF709FEB8
:100A90000146C017C4E97410D6E90232591A8241DE
:100AA00008DB2846FFF783FE00B100E002E00128E2
:100AB00003D020E084F8E8711DE02846FFF7DEFC53
:100AC000D6E7062084F8E80101200BF059FF0DE07D
:100AD0002846FFF76CFE012801D038B10BE084F8FE
:100AE000E88108E0381600203814002000F088F86B
:100AF0004846FFF7C0FD002002E610B50021401077
:100B0000002802D001F10101F9DC454C4FF0010051
:100B100001F1010100FA01F0C4E90C010DF0C4FE7D
:100B20000CF0AAFFA06394F8341019208840E06309
:100B300010BD10B54FF418713A4801F0C3FF4021C1
:100B4000374801F0BFFF0720FFF778FB344840F239
:100B5000DC510022C0E906121421C0E902124FF450
:100B60001671C0E9041230492E4C01620120C4F80C
:100B7000E4011920FFF7C1FF0020C4F8080210BDEE
:100B800010B54FF41871274801F09CFF0720FFF7BC
:100B900055FB244801210022C0F8E41180F8E81137
:100BA000032101200BF0E2FE07226421AFF2A7200F
:100BB000BDE810400BF03EBD10B501200BF0E0FE8B
:100BC000AFF2BB20BDE810400BF044BF10B5FFF7FB
:100BD000B0FF002805D1AFF25700BDE810400BF080
:100BE000ADBD10BD10B5FFF7E7FFAFF26B00BDE87C
:100BF00010400BF055BF0B49D1E97C01704770479D
:100C0000084810B59821083001F05CFF982107488A
:100C100001F058FFBDE810400520FFF70FBB0000B2
:100C200098160020381400200008AF2F70150020FF
:100C30002DE9FC5F0D460026416B99469246B04671
:100C4000002904DBD0F8BC00032800D10126FF49AD
:100C50002422081F01F0CFFEFC4FC03F0024C7F83C
:100C6000E05007EB8400D0F8BC1040460DF0AAFC21
:100C7000641C80460A2CF4DBF5490DF017FDF54C99
:100C800080464FF0C80BC7F8E400BAF1320F21DB01
:100C90004846C7F81CB10DF007FE00900190EE49E0
:100CA00028460DF003FD01990DF08EFE21460DF052
:100CB000FDFC0446BAF57A7F33DBE8492846009C00
:100CC0000DF0F4FC21460DF07FFEE2490DF0EEFC44
:100CD000044626E041F2883199FBF1F04042D7F812
:100CE0001C1100EB80004018C7F81C0102D5002041
:100CF000C7F81C0148460DF0D7FD8246D849284662
:100D00000DF0D4FC51460DF05FFE21460DF0CEFCF7
:100D10000446D7F81C0120B9D7F82801012800D1D2
:100D20000024D7F8200100B12C46CE49894500D1D6
:100D30002C4614F0FF4F11D04046C7F8E8804146DA
:100D40000EF002F820F00040C7490DF009FF22D252
:100D5000D7F8B80010F0FF4F03D01CE0D7F8E80038
:100D6000EDE7C6B14846C7F81CB10DF01AF90446C4
:100D70000E4628460DF0FAFB0022BC4B0CF08AFF11
:100D8000224633460DF024F90022B94B0CF082FFC5
:100D90000CF09EFE04462046BDE8FC9F2DE9F04F76
:100DA000ABB04FF0000AA94FCDF810A0C03FCDF86E
:100DB00014A0CDF818A00446D7F82011022003296A
:100DC0007DD0002620AD07EB8600D0F8A8000DF0FE
:100DD0006BFD6FF01D010EF0D2F845F82600761C71
:100DE000042EF0DB0FA80AF0E5FD24A80AF044FE6B
:100DF000964B24AA183B0FA92046279300F0F4F93C
:100E0000064604F118000AF0A7FE82099548D7F8B3
:100E10003031834200DB034631462046FFF708FFAE
:100E2000BB4607F1B806D7F8EC100DF0CDFD3060E9
:100E30000BA80AF0BFFD13A90BA80BF08EFB83488B
:100E40000FAA3C300BA906460BF0CEF931460BA891
:100E50000BF0AFF900210DF13C080DF14C090DF13B
:100E6000100E00221346104601EB410C0CEB00075C
:100E700059F8276008EB8007401C7F680328C6FBF1
:100E80000723F3DB900F40EA83004EF82100491C52
:100E90000329E6DBDBF820015F4600287DD05046C1
:100EA000CDF818A040420DF0FFFC6FF01D09494637
:100EB0000EF065F809F01CFDD046564600E074E0DF
:100EC000CDE9000A0698CDF808A040420DF0ECFCF0
:100ED00049460EF054F80CF0E5FC0390D7F83001C9
:100EE00041F2883190FBF1F04FF0804A0DF0DCFCCC
:100EF0002890299006980DF0D7FCDFF878B1594674
:100F00000DF0D4FB29990DF0D1FB51460DF0CEFB2D
:100F10000DF08EFC40000690DDF8A0A00DF0C4FCA2
:100F200059460DF051FD51460DF04EFD0DF080FC7F
:100F300006900DF0B9FC49460EF021F809F0D8FCF6
:100F4000CDE90706099606980DF0AEFC49460EF06D
:100F500016F80CF0A7FC0A901CAA694620A80BF012
:100F60009BF96A4607A91CA80BF096F9D4F8BC00B7
:100F7000EA46002810DD00261E215AF8260045F812
:100F800026000DF0FCFF0DF053FC07EB8601761CEC
:100F9000C1F8A800042EEFDB00E00BE0D4F8BC00A1
:100FA0004FF0FF3503280AD106E0C7F820012BB027
:100FB000BDE8F08F069875E701F007FBF0B357F82E
:100FC000A80F0DF071FC4E4649460DF0D8FF1C905D
:100FD00078680DF069FC31460DF0D1FF1D90B868BE
:100FE0000DF062FC31460DF0CAFF1E90F8680DF05E
:100FF0005BFC31460DF0C3FF1F90B86FA83F00287F
:10100000D5D0D7F8B8002946A8370DF0B8FF09F0B9
:101010006FFC1E210DF0B3FF0DF00AFCC7E90008BC
:10102000C7F80880294638690DF0A9FF0CF03AFC92
:101030001E210DF0A4FF0DF0FBFB00E01CE0F860AA
:10104000D4F8C010A83F279844E00000981700206B
:101050000000204100409C450000484300004842F9
:101060000000C84340420F000E2DB23D0000794001
:101070000088B340E10237472946D7F8B8000DF0A1
:101080007EFF09F035FCCDE90708CDF8248029461C
:10109000D7F8B8000DF073FF0CF004FC0A906A4614
:1010A00007A920A80BF0F8F868460BF0B2F9002564
:1010B00056461E2156F825000DF061FF0DF0B8FBD5
:1010C00007EB85016D1CC1F8A800042DF1DBD4F8F5
:1010D000C01027980BF0ACFBD7F8200100288FD068
:1010E000401E62E770B590F8B810664ACC064FF023
:1010F00000034FF0030101D4C2E94813B0F82041C6
:10110000E40509D4048EE40503D5B0F87440E40581
:1011100002D4C2E948131AE0D2F8341139B1D0E947
:101120003013C91A4FF47A73B1FBF3F105E0D0F82C
:10113000B01044F62064A14202DBC2F830110AE08C
:10114000D2F82C512944C2F82C11A14201DA002016
:1011500070BDC2E94B31FFF721FEF8E710B54FF43F
:101160009C71484801F0AEFC464C4FF08040002195
:10117000C4F8FC0044F8A80F4248A8300BF058FB14
:101180004FF47A7060674FF07E50606410BD3D4947
:10119000C1F8EC00002070473A49C1F8280100204E
:1011A00070473849C1F834010020704704224FF4D9
:1011B0001671AFF2CF000BF03DBAAFF2D7000BF0D3
:1011C00049BC10B5FFF7CAFF2E490020C1F828011D
:1011D000C1F83401AFF22B00BDE810400BF0AEBAFD
:1011E000AFF237000BF05CBC2DE9FF470C462549F8
:1011F0001546074699463C220C31224801F0FBFB7C
:10120000204950225831A1F1100001F0F4FB1D4E8D
:1012100095E8070006F13C031B4D83E807001ECC50
:1012200006F1980080E81E00D6F82401401CC6F89C
:101230002401062802DD0620C6F82401C0F10604B8
:1012400007F1A00818E006EB04116A464846483149
:101250000AF0CAFF04EB440006EB80016A464046F0
:101260000AF086F9074625F0004120F000400DF015
:1012700077FB00D23D46641C062CE4DB04B0284614
:10128000BDE8F087D8160020002474491FB5014638
:101290001022684601F038FBF6489DE80E0080E811
:1012A0000E00F5499DF80C0081F8B001002004B053
:1012B00010BD1FB5EF490EC98DE80E00EE49102292
:1012C00091F8B0118DF80C10694601F01DFB00205B
:1012D000EDE72DE9F04F91B000251821684601F0A7
:1012E000F1FB0024182106A801F0ECFBE249A0461E
:1012F000C14691F8C00101287ED1D1F8B8B1D1F82A
:10130000B4A10022C2EBC20000EB4001DA4800EBBE
:10131000810E9EF850000F90002863D000215EE0FF
:101320005EF82130DDE900676D1CD8170E939B191C
:101330007841CDE900300EEB8100EDB243690D93A9
:10134000DDE9027CDE17DB1946EB0C06CDE902363F
:10135000836ADDE9047CDE170C93DB1946EB0C068F
:10136000CDE90436C06B0E9BDDE9067C83FB006390
:10137000360C46EA0346F6194CEB2343CDE90663E7
:101380000D9BDDE9087C83FB00634FEA164646EAC5
:101390000346F6194CEB2343CDE908630C9BDDE9CA
:1013A0000A7C83FB00634FEA164646EA0346F619B9
:1013B0004CEB2343CDE90A6380FB00634FEA1646FA
:1013C00046EA034616EB080849EB2349044458450E
:1013D00001DA834602E0504500DD8246491C0F9841
:1013E00088429DDC521C052A8CDBA348AAEB0B012A
:1013F000D0F8BC01814200E053E052DBA5FB08724B
:10140000E01700260F9006FB082005FB09000E9050
:1014100084FB0410090C41EA00410014CDE90C01E1
:1014200006A800EBC601D1E90002A0FB05BC02FB47
:1014300005C2002100FB012C684600EBC601D1E982
:101440000002A0FB043802FB04820F9900FB01207C
:10145000190C0CAA41EA00494FEA204A92E80B0015
:1014600087EA010283EA000852EA080212D07A1AD7
:1014700063EB0003BBEB09006CEB0A0C4FEA0C4179
:1014800041EA1041000401F0CDF87B4901EB8601EF
:10149000C1F8A401761C032EC2DB7748012180F835
:1014A000B01111B00020BDE8F08FF8B5724D0E46B6
:1014B0000446D5E96D01091A052291FBF2F1301AB3
:1014C00090FBF1F0C0B28DF80000042801D9202073
:1014D000F8BDC0EBC00000EB400005EB800191F8C7
:1014E0005000052816D0421C81F850209DF80010AD
:1014F000C1EBC10101EB410105EB810202EB80016F
:10150000CE63236842F8203060684861A068886232
:101510000020F8BD01F14003181F1022194601F008
:101520006AFA9DF800001022C0EBC00000EB4000FA
:1015300005EB8000011D01F05EFA9DF8000010220D
:10154000C0EBC00000EB400005EB800000F118018B
:10155000143001F050FA9DF800001022C0EBC000DA
:1015600000EB400005EB800000F12C01283001F079
:1015700042FA0420BAE730B585B0044603A96846AC
:101580000AF0B2FA04A80AF053FB02282BD0D4F8D0
:10159000E4000399401A384991F8B02112B308B316
:1015A000D1F8A421009C80FB0232150445EA1342C5
:1015B00022440092D1F8A821019C80FB023215043C
:1015C00045EA134222440192D1F8AC11029A80FB01
:1015D0000110030443EA11401044029003216846BD
:1015E0000BF07CF90CE0606B032809D10AF08EFA4D
:1015F00030B168460399FFF758FF08B9FFF769FE55
:1016000005B0002030BD10B54FF4E2711A4801F06A
:1016100059FA19481949C0F8B4114FF4AA01C0F891
:10162000B8114FF4A021C0F8BC11012180F8C011FD
:10163000002010BD1049C1F8B801002070470E49C4
:10164000C1F8B401002070470B49C1F8BC0100206B
:10165000704758B10849D1F8A4210260D1F8A821F7
:101660004260D1F8AC1181600020704705207047BE
:1016700024207047B4190020101800200000D8FF63
:1016800020B12D4981F8C001002070472420704707
:10169000294B93F8B101002818D0D3E96D10401AF6
:1016A000052190FBF1F00020C0EBC00101EB4101EE
:1016B00003EB810191F8502022B1002100E0491C88
:1016C0008A42FCDC401C0528EEDB00207047082223
:1016D00096211A480AF0AEBF18480BF0BBB910B5F6
:1016E000FFF791FF4FF49A731022154915480AF03D
:1016F000EFFF20B9AFF229000BF020F808B101206C
:1017000010BD0D49012081F8B101002010BD10B5B8
:10171000094C94F8B101002808D008480BF09AF958
:10172000AFF255000BF0BCF908B1012010BD00204C
:1017300084F8B10110BD00001018002077150008D2
:10174000B31200088D1200082DE9F043044699B049
:101750001D4691460E4680680DF0A6F801460DF034
:1017600033F9804660680DF09FF801460DF02CF9C2
:10177000074620680DF098F801460DF025F9394626
:101780000CF020FF41460CF01DFF0CF075F90746E8
:1017900020F000404FF08D410DF0E2F97ED230682C
:1017A0000DF082F86FF01D0841460DF0E8FB049043
:1017B00070680DF079F841460DF0E1FB0590B068D6
:1017C0000DF072F841460DF0DAFB0690F0680DF06E
:1017D0006BF841460DF0D3FB00260C96079020686D
:1017E0000DF062F839460CF061FF0D9060680DF065
:1017F0005BF839460CF05AFF0E90A0680DF054F8D3
:1018000039460CF053FF0F9010AA0CA904A80AF057
:1018100043FD14A904A80AF0D8FC6A4614A910A82C
:101820000AF03AFD019908460DF0CEF802990446F7
:1018300008460DF0C9F821460CF0C4FEFE49884266
:1018400001DAFE4C0BE0FE49884201DAFD4C06E06D
:10185000FD49884202DA4FF07A5400E0FB4C4846DA
:101860000DF022F8FA490CF021FF21460DF0ACF8FA
:1018700004460896214602980DF0A6F809900198B2
:10188000214680F000400DF09FF8CDE90A066A4637
:1018900004A908A80AF000FD6A4600E025E004A9B2
:1018A00010460AF06DFC68460AF071FD1E21009892
:1018B0000DF065FB0CF0BCFF28601E2101980DF0B7
:1018C0005EFB0CF0B5FF68601E2102980DF057FB1F
:1018D0000CF0AEFFA8601E2103980DF050FB0CF039
:1018E000A7FFE86019B0BDE8F08396E80F0085E82F
:1018F0000F00F7E72DE9F05F05460C4680680CF015
:10190000D3FF01460DF060F8074668680CF0CCFF85
:1019100001460DF059F8064628680CF0C5FF01464F
:101920000DF052F831460CF04DFE39460CF04AFEEF
:101930000CF0A2F84FF07E59002706464FF0804881
:10194000484505DCC4E90087A760E760BDE8F09F73
:10195000A8680CF0A9FF31460CF0A8FE82460146AB
:1019600048460DF0F1F94FF40006B04200DA0020CD
:101970004FF0FF310DF003FB0CF07EF88346494633
:1019800050460CF01FFEB04200DA00204FF0FF314D
:101990000DF0F5FA0CF070F8824668680CF084FFE0
:1019A00001460DF011F8064628680CF07DFF01464F
:1019B0000DF00AF831460CF005FE0CF05DF8064615
:1019C0004845BFDD1E2150460DF0D9FA0CF030FF1E
:1019D000206068680CF068FF31460CF067FE5946DD
:1019E0000CF0F2FF1E210DF0CAFA0CF021FF60602E
:1019F00028680CF059FF31460CF058FE59460CF09F
:101A0000E3FF94490CF0E0FF0CF012FFC4E9020779
:101A10009CE72DE9F04105460C46C0680CF044FFF8
:101A200001460CF0D1FF8046A8680CF03DFF01464E
:101A30000CF0CAFF074668680CF036FF01460CF050
:101A4000C3FF064628680CF02FFF01460CF0BCFFD0
:101A500031460CF0B7FD39460CF0B4FD41460CF0B0
:101A6000B1FDB0F5000F06DA4FF080402060002095
:101A70006060A0602DE00BF0FFFF01464FF07E504C
:101A80000CF014FE1E210DF07AFA064628680CF0C0
:101A90000BFF31460CF098FF0CF0CAFE206068681E
:101AA0000CF002FF31460CF08FFF0CF0C1FE6060BD
:101AB000A8680CF0F9FE31460CF086FF0CF0B8FE79
:101AC000A060E8680CF0F0FE31460CF07DFF0CF0F1
:101AD000AFFEE060BDE8F08170B5044690F83000DC
:101AE00088B0400676D5A069002801DB014600E0F9
:101AF00041424FF480320026574D91420BDAE169A2
:101B0000002900DA4942914205DA216A002900DA07
:101B10004942914260DB002800DA40424FF4C8019C
:101B200088420BDCE069002800DA4042884205DC8C
:101B3000206A002800DA4042884201DD032000E0EC
:101B40000220A863696BA06A814219D06863A06A09
:101B50000CF0AAFE41490CF0A9FD1D210DF00FFA71
:101B60000CF004FD3E4A3F4B0CF032FA08220DF017
:101B7000D8F900223C4B0CF08DF80CF0E3F9286307
:101B80000496296BA0690AF0DAFA0590296BE069DE
:101B90000AF0D5FA0690296B206A0AF0D0FA07906D
:101BA0006A4604A92C480AF01FFB00982A4A8001C3
:101BB000009001986946800101900298800102908E
:101BC00003988001039010460AF0C8FA224908469B
:101BD000FFF71FFF08B070BDAE63FBE72DE9F043D0
:101BE0000446D0F820018FB041067CD51A4DD4F8B8
:101BF00010111E4B2A68891AD4F82C215A438A42A4
:101C000001DA032100E00221A963810504F588704F
:101C1000804601D51049D4E0002104A809F064FFF2
:101C20000D490C223C3104A800F042FE08BBD4F858
:101C30002801A96D88421BE017B75139A69BC43B08
:101C40000AD7233C8FC2753DCDCC4C3ECDCCCC3E8B
:101C50000014CD47000080CED41900200024744920
:101C6000112D4454FB2109400080664071981C00EE
:101C70007ED0208807AB80B204AA616A09F0C1FC5B
:101C800009980CF011FE01460CF09EFE07460898DC
:101C90000CF00AFE01460CF097FE064607980CF081
:101CA00003FE01460CF090FE31460CF08BFC3946E9
:101CB0000CF088FC0BF0E0FE0646E8490CF084FED0
:101CC000E7490CF0F3FC6FF00F010DF058F90746EF
:101CD000D4F828010CF0E8FD39460CF075FEE14916
:101CE0000CF0E4FC00E06EE04FF0FF310DF047F93E
:101CF000074608F0FDFD814638460BF0D3FD074648
:101D00004FF08040864204DAA8640020E864286529
:101D100033E01E2148460DF032F90CF089FDA8642D
:101D200007980CF0C1FD8146CF4938460CF04CFEB7
:101D3000074649460CF048FE31460CF0B7FC0CF063
:101D400077FDE86408980CF0AFFD014638460CF0CA
:101D50003BFE31460CF0AAFC0CF06AFD28650998A0
:101D60000CF0A2FD014638460CF02EFE314600E094
:101D70000EE00CF09BFC0CF05BFD04AB686593E897
:101D8000070005F13C0383E80700D4F82801A865A3
:101D90006A46B64940460AF027FAB4480AAA1430FF
:101DA000694604460AF020FA214640460AF001FA44
:101DB000AE486A460AA948380AF016FAAB4968469E
:101DC0004839FFF726FE0FB08DE51FB50446A7483A
:101DD000694648380AF0EDF9A44A6946283A20468F
:101DE0000AF002FAA1491DCC383981E81D001FBD57
:101DF0002DE9F0479D4E0446483E90F8740006F1E8
:101E00005C0A06F12008012500F05001103692B05E
:101E100004F5887904F15C07402906D094F8200184
:101E200000F0500040280DD01EE031463846FFF744
:101E300061FDB4F82001C0050CD5514648460AF0B2
:101E4000B8F907E0514648460AF0B3F9B4F874000F
:101E5000C00509D58548694648380AF0AAF94246BE
:101E6000694630460AF0C0F9B4F82001C0052046A2
:101E700002D5FFF7B3FE01E0FFF72EFE7B493246A5
:101E8000483940460AF0B0F994F87400400671D51C
:101E9000208EB4F820110843C00578D50FAA394622
:101EA00030460AF03BFBD4E9172080FB0001C2FB5F
:101EB0000201626E6D4FC2FB0201483F4FF080424B
:101EC000801A71F1020014DB04A809F07DFEDDE93F
:101ED000042080FB0001C2FB0201069AC2FB020142
:101EE0004FF08042801A71F1020002DB0420B863D7
:101EF0000BE0B86B042808D041F28832022806D0E3
:101F0000032804D001283AD009E0002507E0E16E5B
:101F100091FBF2F5012D00DA0125032800D0AD0078
:101F200053480024454310980794800229460AF03C
:101F300006F908900F982946404280020AF0FFF8FF
:101F4000CDE909040BAA314607A80AF04DF932463B
:101F50000BA910460AF002F931460846FFF759FD71
:101F60004248694648380AF024F9424669463046F4
:101F70000AF03AF912B00020BDE8F08707E0E06E01
:101F800090FBF2F0012800DA01204500C7E7334654
:101F900019463846E26EFFF7D7FBE1E770B5044615
:101FA000008EC105D4F8200107D4B4F87410C90517
:101FB00003D4C10501D4002070BDC0F30120032863
:101FC00008D02046FFF714FF2848A16B38380AF0E4
:101FD00031FDF0E704F5887124482EC9383880E8CF
:101FE0002E00F1E723480AF035BD204810B56C21DA
:101FF000483800F067FD1D484FF0804148380161C6
:1020000001600162C163C165002010BD1D4810B5AB
:10201000082219A1006800F04BFC08B1322010BD65
:102020001322BDE81040C82112480AF003BB10B5C6
:10203000FFF7DBFF002805D1AFF22F00BDE810400D
:102040000AF07CBB10BD10B50A480AF003FDAFF2E0
:102050004300BDE810400AF023BD0000DB0F4940FB
:102060000000344300247449000080CE1C1A002074
:10207000A69BC4009D1F0008654D504C20352E3195
:102080000000000034010020002803DDFE49012289
:10209000C1E920020020704710B5B821FA4800F0CD
:1020A00011FDF948F949C160F9498160F9490160B8
:1020B000F94941604FF0804141664FF4FA61C167D0
:1020C000F649C0F89C10002010BD2DE9F041EE4CFF
:1020D0000E460746002521680CF042FD11D3384614
:1020E00061680CF03DFC0CD32069012813D1304607
:1020F000E1680CF035FD04D33046A1680CF030FCEB
:1021000009D2606F20B9E048A16D18300AF090FB49
:102110000120C4E91D05D4E91E01884204DB606F7B
:10212000012800D1E5656567BDE8F08170B50C4612
:10213000054609F049FCD44A002110B9D848854227
:1021400002DD1161516102E01069002808D1506977
:1021500020445061B0F5FA7F02DD0120C2E904019C
:1021600070BDF0B58DB00D461446064669460AF0BE
:10217000F4F909AA314628460AF036F829463046CD
:102180000AF017F80021EC460DF1240E00231A4640
:10219000184601EB41073D180EEB80065CF8255010
:1021A0007668401CC5FB06320328F4DB980F40EA32
:1021B000820044F82100491C0329E7DB0DB0F0BD83
:1021C000B1490020C1F88C00704770B504468068A2
:1021D0000CF06AFB01460CF0F7FB054660680CF05A
:1021E00063FB01460CF0F0FB064620680CF05CFB3C
:1021F00001460CF0E9FB31460CF0E4F929460CF0FD
:10220000E1F90BF039FCBDE870406FF00F010CF004
:10221000B6BE70B50E4600259B4C012130B1012899
:102220000CD0C4F8981044F88C5F29E0C4F8A06082
:10223000C4E92965E4E92415A56070BD3046D4F8E9
:10224000A0100CF081FD20F00040D4F89C100CF0A0
:1022500087FB13D254F8945F31466D1C25602069CA
:102260000CF0B0F92061943C312DE6DD022144F8F8
:10227000901F8C490CF01AFAA06170BD44F8905F71
:10228000656070BD2DE9FF4F8BB000267E4C054682
:10229000039604960596D4F888009346374600289E
:1022A0007ED009F03FFC10B103A809F00FFCD4F870
:1022B0008000A146002819DD01204C46C9F88400A1
:1022C00009F030FC48B103A809F046FC8009B0F5DC
:1022D000C87F02D2D4F8800004E0D4F88000401B0C
:1022E000C4F88000002801DCC4F8847009F052FEB4
:1022F000002855D000240E9850F824000CF0D4FA91
:1023000082465BF824000CF0CFFA6FF00F084146CC
:102310000CF035FE51460CF057FB41460CF02FFEF9
:1023200031460CF04FF9641C0646032CE3DB58469B
:10233000FFF74BFF0146069030460CF0B7F94FF01F
:102340007E58DFF864A1404501DD404602E050457B
:1023500000D9504607F072FF8346D9F88C004E46EC
:1023600070B1316806980CF0FBFA09D271680698D2
:102370000CF0F6FB04D25946D6F89000FFF749FF5F
:10238000684609F03FFC40490C22AC31684600F039
:102390008FFA18B9D6F8980001286CD13A4800E0B5
:1023A000C6E09DE80E00AC3080E80E00009818B939
:1023B000019808B9029858B36846FFF706FF04462B
:1023C00010F0FF4F57D0DFF8E490204649460CF05C
:1023D000BBFC01460CF0F8FA0BF04EFB706049466E
:1023E00020460CF0EFF801460CF0EEFA0BF044FB3F
:1023F000306002980CF058FA6FF00F010CF0BFFD3E
:1024000021460CF053F9044640451FDD444620E0C8
:102410002048306020487060D6F89800012804D029
:102420001B48B0601948F06025E0D6F89C80D6F8CB
:10243000A840414620460CF087FCB060414620464B
:102440000CF0C0F8C6F89870F06014E0544500D95C
:102450005446204607F0F2FED6F89C100CF074FCAF
:10246000B060204607F0EAFED6F89C100CF0AAF8FF
:10247000C6F88C70F060DFF81080F16D08F1580834
:1024800001BB0120002413E0401A00200000B442E8
:102490000000B4C2000070420000F0417B142E3EE8
:1024A00000401C4600004842000080BF0000204160
:1024B000F06506EB04104146183009F0ADFA641CD3
:1024C000042CF6DB434907AA0C460C98FFF749FE9B
:1024D00021460C9809F06DFE03A809F03DFB0CF0B5
:1024E0002BFA6FF005010CF04AFD2946FFF71EFE9E
:1024F00059460698FFF7E9FDD6E91E01884201DA40
:102500002844B067706F90B9306E28443066B0F5DB
:102510007A7F0CDD2F4930223C39A1F1100037665B
:1025200000F069FA2B4841461C3809F075FA706FC3
:102530000FB0BDE8F08F70B588B0044604A809F06C
:102540009BFAD4E93001451A684609F033FA064689
:1025500004AB04F1A00269462846FFF793FE0AF097
:1025600077F908B0304670BD04224FF49671AFF28F
:1025700039000AF05FB8AFF241000AF06BBA10B54B
:10258000FFF78AFD00280DD1124800216438C0F8F9
:102590008C100121C0F88810AFF23300BDE8104064
:1025A0000AF0CCB810BD10B5AFF275000AF052FABF
:1025B000AFF27D00BDE810400AF04CBA0549012099
:1025C0006439C1F88C000020704702486438406FBD
:1025D00070470000A41A0020B2F120030AD5C2F10E
:1025E000200301FA02F120FA03F300FA02F041EAB3
:1025F0000301704700FA03F14FF000007047B2F199
:1026000020030AD5C2F1200320FA02F001FA03F3F5
:1026100041FA02F140EA0300704741FA03F04FEA41
:10262000E171704710B54C1084EA530404D5404260
:10263000C1F1000138BF491E1B4204D55242C3F10B
:10264000000338BF5B1E00F0A8FA14F0804F04D0DE
:102650004042C1F1000138BF491E14F0004F04D0C0
:102660005242C3F1000338BF5B1E10BD0FB40449D2
:1026700010B503AA029800F0AFFD10BC5DF814FB82
:102680004C1B00200FB41CB5074B06AA7B446946BF
:102690000090059800F071FD0020694600F080FD73
:1026A0001CBC5DF814FB0000110B000070B50C465B
:1026B0000546012A05D02878800600D5EA6900235E
:1026C00002E0012305E05B1C934202D2E05C00289B
:1026D000F9D1A869E618C01AA861286A18442862C6
:1026E0002846AFF3008004E0D5E9012114F8010B7E
:1026F0009047B442F8D32846AFF3008070BD000085
:102700002DE9F0410646002410687529314616A5CA
:1027100010D0AFF30080002802DA404213A507E092
:1027200031688A0701D512A502E0490704D511A531
:10273000012401E0AFF3008000210A2206F1240702
:1027400009E0B0FBF2FCB0FBF2F302FB1C003030FE
:1027500078541846491C0028F3D123462A463046AF
:10276000BDE8F04100F09BBA000000002D00000021
:102770002B000000200000002DE9F05F8946044690
:102780004FF0000ADFF824B1FB44C0F820A0204637
:10279000E168884700287DD0252806D0D4E90121AA
:1027A0009047206A401C2062F1E700255F462046E2
:1027B000E16888472028064607DB312E05D2B81984
:1027C00010F8200C08B10543F1E7A80701D525F062
:1027D0000405C4F81CA00027C4F818A02A2E09D0AC
:1027E000304607F0B5FC38B304EB8708303EC8F834
:1027F000186019E059F8041B204604EB8702916128
:10280000E1688847012F064618D1E069002820DAE0
:1028100025F020051DE0D8F8180000EB800006EB3D
:1028200040003038C8F818002046E168884706465E
:1028300007F08EFC0028EED1012F0AD02E2E08D1F1
:102840002046E16888477F1C0646022F45F0200598
:10285000C4DBA069002803DA404245F00105A0610D
:10286000E80701D025F01005A6B1A6F1410019280E
:1028700002D8203645F400654A4631462046256098
:102880004D46FDF78DFC60B1012807D0ED1D25F008
:10289000070000E007E000F1080978E705F1040906
:1028A00075E730467AE7206ABDE8F09F9CDF0000BC
:1028B00040EA010310B59B070FD1042A0DD310C8BD
:1028C00008C9121F9C42F8D020BA19BA884201D90F
:1028D000012010BD4FF0FF3010BD1AB1D30703D057
:1028E000521C07E0002010BD10F8013B11F8014B0D
:1028F0001B1B07D110F8013B11F8014B1B1B01D129
:10290000921EF1D1184610BD032A40F2308010F01B
:10291000030C00F0158011F8013BBCF1020F62447A
:1029200098BF11F801CB00F8013B38BF11F8013B0B
:10293000A2F1040298BF00F801CB38BF00F8013BB8
:1029400011F0030300F02580083AC0F0088051F828
:10295000043B083A51F804CBA0E80810F5E7121D33
:102960005CBF51F8043B40F8043BAFF30080D20752
:1029700024BF11F8013B11F801CB48BF11F8012B1E
:1029800024BF00F8013B00F801CB48BF00F8012B41
:10299000704710B5203AC0F00B80B1E81850203ACB
:1029A000A0E81850B1E81850A0E81850BFF4F5AFEF
:1029B0005FEA027C24BFB1E81850A0E8185044BF79
:1029C00018C918C0BDE810405FEA827C24BF51F8E6
:1029D000043B40F8043B08BF7047D20728BF31F8DA
:1029E000023B48BF11F8012B28BF20F8023B48BF2B
:1029F00000F8012B7047431A28BF9A427FF6C9AFEF
:102A0000104410F0030F11441EBF11F8013D521E77
:102A100000F8013D10F0030F7FF4F6AF103AC0F05C
:102A20000A8010B531E91850103A20E91850BFF467
:102A3000F9AFBDE81040530724BF31E9081020E981
:102A4000081044BF51F8043D40F8043D12F0030F54
:102A500008BF7047D20728BF31F8023D48BF11F8C0
:102A6000012C28BF20F8023D48BF00F8012C704718
:102A700002F0FF0343EA032242EA024200F002B8F6
:102A80004FF000020429C0F0128010F0030C00F097
:102A90001B80CCF1040CBCF1020F18BF00F8012B15
:102AA000A8BF20F8022BA1EB0C0100F00DB85FEAE3
:102AB000C17C24BF00F8012B00F8012B48BF00F8AF
:102AC000012B70474FF0000200B51346944696461E
:102AD000203922BFA0E80C50A0E80C50B1F1200131
:102AE000BFF4F7AF090728BFA0E80C5048BF0CC0DF
:102AF0005DF804EB890028BF40F8042B08BF70473D
:102B000048BF20F8022B11F0804F18BF00F8012BAE
:102B1000704700004FF0013C50F8042B51F8043B83
:102B20009A4221D1A2EB0C03934313EACC1317D1A1
:102B300050F8042B51F8043B9A4215D1A2EB0C0338
:102B4000934313EACC130BD150F8042B51F8043BF8
:102B50009A4209D1A2EB0C03934313EACC13DBD0C6
:102B60004FF00000704700BFD01A01BAB1FA81F1EE
:102B700001F0180122FA01F0CB40C1F12001DBB2D3
:102B8000C0B2C01A2CFA01F3D11A914311EAC31151
:102B9000E6D1704770477047704753EA020C00F067
:102BA00069802DE9F04B4FF00006002B1FBFB3FAF0
:102BB00083F503FA05F424FA05F65E4012BF1643C6
:102BC000B2FA82F502FA05F4C5F120051EBF22FA19
:102BD00005FC44EA0C04203556EA044C4FEA144440
:102BE00018BF641C4FF000084FF00009904271EBD1
:102BF000030C39D3002919BFB1FA81F701FA07F69E
:102C0000B0FA80F700FA07F6C7F120071EBF20FAD6
:102C100007FC46EA0C062037B6FBF4FCA7EB0507D9
:102C2000103F07F01F0BCBF120060CFA0BFB2CFA20
:102C300006F644BFB3460026202FA4BF5E464FF0E1
:102C4000000B5BEA060C08BF4FF0010B19EB0B09F8
:102C5000ABFB027C48EB0608C01B06FB02CC0BFB5F
:102C600003CC71EB0C01C1E70B46024641464846D6
:102C7000BDE8F08B13B54FF000004FF00001AFF34B
:102C80000080BDE81C40704710B500F0BBFA00683A
:102C900010BD10B5044600F0B5FA046010BD2DE972
:102CA000F0470D4699469246044600F12408016813
:102CB000880604D5E06921F01001216000E00120C0
:102CC000A84201DD471B00E00027A1697A1902EB49
:102CD0000900081AA0612078C00602D42046AFF38C
:102CE0000080002608E0D4E901211AF80600904788
:102CF000206A401C761C20624E45F4DB2078C0061A
:102D00000AD52046AFF3008006E0D4E90121302047
:102D10009047206A401C2062381EA7F10107F4DCAE
:102D200007E0D4E9012118F805009047206A401C0B
:102D30002062281EA5F10105F3DC2046AFF30080D8
:102D40002078000602D50220BDE8F0870120FBE7CD
:102D500070472DE9FF4F0C461E464FF0FF378BB0F2
:102D6000D2E90001DDF860800A908A46C1F30A5575
:102D700005B93D46002108464FF00000BAF1000FAA
:102D800000F4400005DA00EB80004FF4400101EA56
:102D900050004FEA9059B9F1010F00DDB9460A9889
:102DA00050EA4A000ED044F61050A5F2FF354543D4
:102DB0002F14B8F1000F1ED07542291E1EDDC9F177
:102DC00000021CE0B8F1010F4FF0000001D03021EB
:102DD00003E0F24305E02154401CB042FBDB3046E7
:102DE0000022002121540B99C1F80880C1E900207C
:102DF0000FB0BDE8F08FBD1B6D1CDEE74A4600DA60
:102E0000694206A800F088FA06AB93E8070003AB16
:102E100083E8070050460A9900F0C0FF8DE80700DC
:102E2000A0F500501F3800900398002D0ADD42F2F3
:102E30001F014A460844002303A90390684601F095
:102E400029FA09E0A0F500504A461F38002303A9DB
:102E50000390684601F033FA8DE807000004000C87
:102E600003D04FF0FF30410800E01046B8F1000FEA
:102E700003D00022009215461EE0751E05D400F016
:102E8000C5F9303262556D1EF9D5B34601220843AB
:102E900002D000227F1C04E02078302801D10022DB
:102EA0007F1E002A099784D01DE0112D07DA00F05B
:102EB000ADF9303262556D1C50EA0102F5D108437C
:102EC00002D00098C8B10EE00021681E05E0235C26
:102ED000625C63542254401E491C8142F7DBAB46BE
:102EE000A81B401E0990002004F80B000B98099ABB
:102EF000C0F80880C0E9002B7AE711264FF00008DF
:102F000057E72DE9F04F88460446D21D22F007010D
:102F100091B0D1E90001CDE90A0107F00DF80246B0
:102F20000B98C00F01D02D2007E02068810701D544
:102F30002B2002E0202101EAC000032A099001D0E1
:102F4000072A05DB03464146204600F0A5F90BE1C0
:102F50002078800601D5E06900E00620B8F1650F11
:102F6000814606D0B8F1660F18D0B8F1670F70D15E
:102F700031E00020B9F1110F009001DB112301E0D5
:102F800009F101030AAA01A90CA8FFF7E2FEDDE995
:102F90000C70002609F10105834647E001204B46ED
:102FA00000904FF000470AAA01A90CA8FFF7D1FE34
:102FB000DDE90DB00C995D46002610B909F101005C
:102FC0000D18B9EB050003D4C0F1FF3609F1010576
:102FD000A5EB09002BE0B9F1010F01DA4FF001096F
:102FE0000020B9F1110F0090484601DD112300E0E7
:102FF00003460AAA01A90CA8FFF7ABFEDDE90C7095
:103000004D4600268346207800070AD4AB4500DAF7
:103010005D4601A8012D04DD411911F8011C30297C
:1030200007D04F4502DA17F1040F04DA0120824677
:103030000FE06D1EEEE7002F02DCED1B3E4403E0C7
:10304000781CA84200DD7D1CB81B00F1010A4FF07E
:1030500000472078000703D4AA4501DB4FF0FF3A70
:103060000021B7F1004F0DF143088DF8431024D033
:1030700002202B23002F01DA7F422D230A21021E7A
:10308000A0F1010000DC5FB197FBF1FC97FBF1F2CE
:1030900001FB1C7C17460CF1300C08F801CDEEE763
:1030A000A8F1010003702188090501D5452100E040
:1030B0006521A0F1010800F8011C09980FA9A1EBF6
:1030C0000807FF1D00B10120411901EBEA70A16959
:1030D0003844081A401EA0612078C00602D4204659
:1030E000AFF30080099828B1D4E901219047206A04
:1030F000401C20622078C00622D52046AFF3008015
:103100001EE0002E04DBB34502DD01A8805D00E077
:103110003020D4E901219047206A401C2062761CAF
:10312000AAF101005FEA000A0AD100F067F8C0685E
:103130000168405CD4E901219047206A401C20626C
:10314000281EA5F10105DCDC07E0D4E9012118F80F
:10315000010B9047206A401C2062381EA7F101072E
:10316000F3DC2046AFF30080032011B041E60000FD
:1031700001694A1C02610878704700B58FB0CDE93B
:1031800001310021059105497944CDE9031011462B
:103190006846FFF7F1FA0FB000BD0000E5FFFFFF42
:1031A0000A6802F8010B0A60704710B5436913B151
:1031B000AFF3008001E0FFF779FA012010BD12782B
:1031C00000F124010A7000224A700122EDE7116823
:1031D0004FF0FF32E9E70000074B70B50D467B4426
:1031E000FFF7CBFF0446284600F008F910B14FF076
:1031F000FF3070BD204670BD9B81000000487047C5
:10320000141C002000487047F41B002030B5B0F1BA
:103210000A024FEA900E71F100034EEA817EB0EB94
:103220000E0061EB91014FEA101E4EEA017E10EB99
:103230000E0041EB11114FEA102E4EEA016E10EB19
:103240000E0041EB11214FEA104E4EEA014E10EBF9
:103250000E0041EB1141401841F100014FEAD0004E
:1032600040EA41704FEAD10110EB80054FEA81043A
:1032700044EA907444EB01046D1944EB0404521BBE
:10328000A3414FF0000348BF0A3200D530BD401CB7
:1032900041F1000130BD00002DE9F0411F46044618
:1032A00003260168072A01F4006004DB08B116A5B3
:1032B00005E016A503E008B115A500E015A521F06D
:1032C00010002060A069C01EA0610FB1401EA06167
:1032D0002046AFF300804FB1D4E901213846904732
:1032E000206A401C2062C01C206206E0206AFAE7C7
:1032F000D4E9012115F8010B9047761EF8D220463B
:10330000AFF30080BDE8F0814E414E006E616E006B
:10331000494E4600696E66002DE9F0478146164623
:103320008AB0354878440DC88DE80D00324878449D
:10333000801C03AC0DC884E80D0041F69B300844A6
:10334000372190FBF1F290FBF1F5A5F1800501FB2F
:1033500012041B3C02D56442012000E00020DFF88B
:1033600098A080460027FA44AAF1BE0A0EE0E007C2
:103370000AD03246684607EB470101230AEB810178
:1033800000F09DFF8DE8070064107F1C002CEED13B
:10339000194F7F44AE3F19E0E80715D007EB041042
:1033A0000DF1180A90E80E008AE80E00C068F0429D
:1033B00001D1981908903246012306A903A800F00C
:1033C0007EFF03AB83E807006D10641C002DE3D182
:1033D0004FF0010332466946B8F1000F03A802D04E
:1033E00000F058FF01E000F06AFFC9E90001C9F8E8
:1033F00008200AB0BDE8F087B0D40000007B00F0E0
:103400008000704710B542485421FFF75BFB4148EC
:103410005421FFF757FB40485421FFF753FB3F4926
:103420003B483C4A3F4B08603D490A603A491960B5
:10343000531C0365481C1065012008653B48344A4D
:1034400039A1784400F0D8F920B9384878440A38CE
:1034500000F077FA37482F4A35A1784400F0CCF9CC
:1034600020B9344878440A3800F06BFA32482A4AC6
:103470002FA1784400F0C0F920B92F4878440A38C9
:1034800000F05FFA40232248DC000021224600F0D1
:1034900090F920B125487844543800F052FA1D487C
:1034A00022464023002100F084F920B121487844CD
:1034B000543800F046FA184822461023002100F044
:1034C00078F9002806D01C487844BDE810405638EA
:1034D00000F037BA10BD104870B5006D20F001043F
:1034E0000B4800F0FFF90B4800F0FCF90A4800F027
:1034F000F9F909E0206D20F00105204600F0F2F90D
:10350000204600F044F82C46002CF3D170BD00009A
:10351000F81A00204C1B0020A01B0020880100206E
:103520008C0100209001002072000000CBD200002E
:1035300077000000BAD20000AAD20000004870470D
:10354000F41B00207546FFF7F9FFAE4605006946FB
:10355000534620F00700854618B020B5FCF75CFE06
:10356000BDE820404FF000064FF000074FF0000884
:103570004FF0000B21F00701AC46ACE8C009ACE805
:10358000C009ACE8C009ACE8C0098D46704770B509
:103590000446051F00F0DCF90068002C14BF4468E5
:1035A00070BD002C18BFAC423CBF20466468F8D305
:1035B00001680A18AA4218BF456003D12A68054667
:1035C0001144016028684119A1421CBF6C6070BDA4
:1035D0006168696021680844286070BD2DE9F04782
:1035E00005460C46C86820F4201040F48000C860EE
:1035F000800602D5084600F0F8FAE06841F2820140
:103600004FF0FF390140022903D0204600F096FA1E
:10361000B5E000F42041B1F5004F0FD1C00306D54D
:103620006168E06A884200D80846606006E0206968
:10363000E0626060606906F09EFDA061A068002203
:10364000EEB200280DDAE1688B050AD4C043A06011
:1036500041F490302260E0606068411C6160067057
:10366000A5E0E0689046226040F40050E0602069E8
:1036700068BB606906F085FD012704F12405A0B14F
:10368000A08910F4407F08D0E06900F0ACF9206117
:1036900018B1E06840F4006016E0E7612561E06879
:1036A00020F4407040F480600EE0E06900F09BF987
:1036B00000282061F1D0E06840F4006010F4407F01
:1036C000E06002D140F48070E06020696060E068F2
:1036D00025696FF0010AC1051FD56168E06A88425B
:1036E00000D80846411B04D02246284600F030FA94
:1036F000F0BBE068010203D5E562C4E9015854E07B
:10370000691CE1626160E16940F48030491EC4E9EE
:10371000021030462E70BDE8F087010202D500F499
:1037200080320AE06068411C61600670E0680A2E21
:1037300040F48030E06006D00022E16A6068814297
:1037400003D90B4602E00122F7E70346A7895B1B7A
:103750007F0503D4E7699F4200DDE2B1814200D8D2
:103760000146E5620F1AC4E90158002B09DD00E0AB
:1037700005E022461946284600F0EAF908B1484615
:10378000C9E747B1A069E5626560C01BA061E06858
:1037900040F01000E060E068000208D56168A069B0
:1037A000E562491B08446560A0615046B3E73046B6
:1037B000B1E770B5C468A50713D0650211D4B2F59E
:1037C000807F09D0B2F5007F06D0B2F5806F08D1B6
:1037D000012300F1240106E05D1E6FF07F46B54233
:1037E00001D3012070BD0161C361416024F47061A7
:1037F0001143C160002070BD2DE9F0410C46074621
:103800001646104600F06EF82078611C61280AD038
:10381000722802D077283CD102E00125002405E07F
:103820000225042402E0082448F2020511F8010BE5
:103830002B2806D0622809D011F8010C74280AD070
:103840000BE045F0030544F00204EFE745F0040502
:1038500044F00104EAE744F010043846214606F03B
:103860009DFC411C15D00021316171604FF4007145
:10387000F560F1617061200704D530460222002115
:1038800000F0E0F8306D40F0010030653046BDE8F2
:10389000F0810020FBE72DE9F0410D460646104C73
:1038A000206DC10704D0410804D020F00104F7E7DF
:1038B00022460EE0542000F096F807000ED0206D4E
:1038C00047F001010843542120653846FFF7FAF814
:1038D0003A4629463046BDE8F0418DE70020D6E75C
:1038E000F81A00202DE9F04704464FF000094FF088
:1038F000FF37C568D4E90486A80707D0204600F042
:1039000051F9304606F02BFC002802DA3846BDE8B3
:10391000F087280502D54046FFF739FE4C212046A6
:10392000FFF7D0F8206D20F0010020654846EEE753
:1039300010B50446AFF300802046BDE81040FCF708
:1039400057BC10B500F078F9BDE8104000F06EB932
:1039500000487047FC1B0020704770477047704755
:1039600038B504460A4600206946AFF300800028B7
:1039700008BF38BD02460099204600F084F90120B6
:1039800038BD012000F0D3B9F8B5AFF3008005468B
:1039900000200C46102000BF0646A819A0420DD9F1
:1039A000324669460020AFF30080070008BF00F0F0
:1039B000BEF90098A04218BF0546C419FFF7C8FF1A
:1039C00005600746F01D20F007004619284600F064
:1039D00053F9B44208BFF8BDA21B31463868BDE8B0
:1039E000F84000F050B970B50646FFF7B1FF056822
:1039F00006F10B0020F00704B4429CBF002070BD0C
:103A00002B466A68BAB11068A04210D304F10801CD
:103A100088423CBF5068586007D351681019416014
:103A20001168091B016058601460101D70BD1346B9
:103A30005268002AE7D121462846FFF791FF002867
:103A4000DED170BD2DE9F041044616460D464769AA
:103A5000007B80072ED0384606F093FB50BB3EB368
:103A6000012E02D0022E25D104E0204600F025F9D7
:103A700005441DE0384606F07EFBE168002841F071
:103A80001001E16005DA204600F058F80120BDE899
:103A9000F081C9030BD56268E16A914200D81146F2
:103AA000A26911442269891A814200DD0846054451
:103AB000002D01DA0220EAE7E16A6068E2688142EB
:103AC00006D29103E06203D522F4003141F01002E6
:103AD000A6690027AE4213DCE16A814201D90B4698
:103AE00000E0034603EB060C2369ACEB030CAC458A
:103AF00006DD814201D98C4600E084469C4505D113
:103B0000A760276042F02000A5620DE0AD1BE669CA
:103B1000AE1B8142A66000D90846C01A281A206050
:103B20005819606022F0200003490840E06000203E
:103B300084F84870ABE70000BFCFD7FFC16821F41D
:103B4000001141F08001C160002181600160704777
:103B50002DE9F047814614460E464FF0FF383248B3
:103B6000D5685769054209D03846A16906F044FB7B
:103B7000002811DB2C48C0430540E5602B46324647
:103B80004946384606F03BFBA16920F00042B21AD4
:103B900011440028A16103D02046FFF7CFFF404623
:103BA000BDE8F08770B504460569C06A616888425F
:103BB00000D80846E16821F42011E160C90312D55C
:103BC000A84208D02246411B2846FFF7C1FF10B18A
:103BD0004FF0FF3070BD0020E562C4E90150E0689D
:103BE00020F48030E060002070BD10B50446C0684D
:103BF00020F02000E060A16AA06988420DD0204634
:103C0000FFF7D0FFE06820F4405040F01000E06083
:103C1000A06AA0612069E062606044F24001E0684F
:103C20008843E06010BD000010000200002801D0B1
:103C300000F01CB87047000010B5014602A000F06B
:103C40005DF8012010BD00005349475254524544CD
:103C50003A2052656469726563743A2063616E2725
:103C600074206F70656E3A20000000000149182032
:103C7000ABBEFEE72600020000210160C0E9011092
:103C8000704710207047034640688C46002818BFD4
:103C900088423CBF03464068F8D3186818448842FD
:103CA00007D00CF1030020F00700001D411A521A42
:103CB0000146081D0A60FFF76ABC10B50146C268DC
:103CC000900703D0900607D5886A0AE0FFF79AFAB2
:103CD00001210160881E10BD8B69486818440B697A
:103CE000C01A91F848301BB191F84910401A10BD24
:103CF0001103FCD50028FADD401E10BD70B5054645
:103D00000C460A2000E06D1C00F018F835B1287848
:103D10000028F8D102E0641C00F010F814B12078FB
:103D20000028F8D1BDE870400A2000F007B810B5AF
:103D300000F00CF8BDE81040FFF778BF08B5694601
:103D40008DF800000320ABBE08BD704710B50128F8
:103D500005D0002103A0FFF7D1FF012010BD09A16C
:103D6000F8E7000053494752544D454D3A204F75EE
:103D700074206F662068656170206D656D6F727963
:103D8000000000003A2048656170206D656D6F721B
:103D90007920636F72727570746564005FEA400C1D
:103DA00008BF91F0000F4FEA8C234FEAC12243EA8B
:103DB00051514FEA1C5018BF00F5F0404FEA300057
:103DC00018BF41F000415FEA6C5C00F02980BCF153
:103DD000FF3F08BF40F080407047130C06BF12043D
:103DE0004FF0100C4FF0000C130E04BF12020CF138
:103DF000080C130F04BF12010CF1040C930F04BF45
:103E000092000CF1020CD30F04BF52000CF1010C14
:103E100011464FF00002A0F11F00A0EB0C0070470C
:103E200011F0004F08BF704731F000413FF4D5AFAB
:103E30000B0C06BF09044FF0100C4FF0000C0B0EDA
:103E400004BF09020CF1080C0B0F04BF09010CF1AF
:103E5000040C8B0F04BF89000CF1020CCB0F04BFC4
:103E600049000CF1010CCCF12003A0EB0C0022FA6C
:103E700003F302FA0CF241EA030100F1010070477A
:103E800020F07F4C80EA030023F07F47ACEB070370
:103E900003F57C5300F0004003F1FF032DE9804956
:103EA0004FEA154B09B44FEA144325EA0B4E24EAB6
:103EB00003480FF2042606EB132749083E785FEA11
:103EC000320203FB0667C7F5000707FB06F64FEA59
:103ED00054374FEAD64606F1020607FB066CCCF1D2
:103EE000005C4FEA1C472CEA074C07FB06F40CFB6E
:103EF00006F504EB15464FEA961634BF00204FF046
:103F000000404FEAD13706FB07FC4FEA1C4C0CFB84
:103F10000BF7D21B03FB0CF761EB07010CFB0EF751
:103F2000B0EB074072EB17420CFB08F734BFA2EB73
:103F30000742B2EB074261EB17414FEA0C444FEAEC
:103F4000910706FB07FC4FEA1C4C0CFB0BF7B0EB90
:103F5000C74072EB573203FB0CF734BFA2EBC742EA
:103F6000B2EBC74261EB57310CFB0EF7B0EBC70069
:103F700072EB57720CFB08F734BFA2EBC702B2EB2F
:103F8000C70261EB5771039F4FEA816141EA9211C9
:103F900004EBCC044FEAD1374FEA826206FB07FC00
:103FA00042EA90124FEA80604FEA1C4C0CFB0BF780
:103FB000D21B03FB0CF761EB07010CFB0EF7B0EB18
:103FC000074072EB17420CFB08F734BFA2EB074225
:103FD000B2EB074261EB17414FEA8C554FEA91076C
:103FE00004EB9C2406FB07FC4FEA1C4C0CFB0BF774
:103FF000B0EBC74072EB573203FB0CF734BFA2EBB8
:10400000C742B2EBC74261EB57310CFB0EF7B0EB86
:10401000C70072EB57720CFB08F734BFA2EBC70264
:10402000B2EBC70261EB577115EB4C254FEA81618A
:1040300041EA92114FEA82624FEAD13742EA901286
:1040400006FB07FC44F100044FEA80604FEA1C4C79
:104050000CFB0BF7D21B03FB0CF761EB07010CFB0E
:104060000EF7B0EB074072EB17420CFB08F734BFBA
:10407000A2EB0742B2EB074261EB174115EB1C15AF
:104080004FEA813141EA92414FEA823242EA90425C
:104090004FEA80304FEA0C7644F1000448EA0343CB
:1040A0004EEA0B484FF0000EB2EB080C71EB030721
:1040B00024BF624639464EEB0E0E4FF0000B00183F
:1040C000524149414BEB0B0BB2EB080C71EB030770
:1040D0007BF1000B24BF624639464EEB0E0E4FF0CB
:1040E000000B0018524149414BEB0B0BB2EB080C93
:1040F00071EB03077BF1000B24BF624639464EEBA0
:104100000E0E51EA020718BF46F0010616EB0E76B6
:1041100055F1000254F1000103D5BDE88901BDE865
:104120000088BDE88901BDE80048B619524141EB5D
:104130000101A3F10103704780807F7E7D7C7B7A43
:104140007978777676757473727171706F6E6E6D43
:104150006C6C6B6A6A6968686766666564646363E9
:1041600062616160605F5F5E5E5D5D5C5C5B5B5A6F
:104170005A595958585757565655555554545353DC
:1041800052525251515050504F4F4F4E4E4D4D4D37
:104190004C4C4C4B4B4B4A4A4A4949494848484782
:1041A00047474746464645454544444444434343C0
:1041B0004342424242414141002B9C4630D4770069
:1041C0002BD01CB54FEA370703B44FF010004FF067
:1041D0001001BAF1000F06D0BCF1000FDCBF40F0B7
:1041E000080040F008014FF000000FBCBDE810408F
:1041F0000BF1010BBBF1010F08BF5FEA170722BFEC
:1042000012F1010211F101014FF0004143F10003ED
:1042100000F0004043EA00007047F9D35708D0E7A8
:1042200046EA064613F1400F4FEA16461FDD13F12A
:10423000200FDFBF16430A46002120335B42BED069
:10424000C3F1200746EA064602FA07F74FEA164688
:1042500046EA0706C3F1200722FA03F201FA07F73C
:1042600021FA03F14FF0000342EA0702A7E746EA0A
:10427000020646EA06464FEA164646EA0106BCBF73
:1042800046EA0646360C4FF000034FF000024FF0AE
:10429000000194E72DE9804C9A46934670B491E86A
:1042A000380007C831EA400C48BF34EA430C03D554
:1042B000FFF7E6FDFFF780FFF0BCBDE8008C2DE9BD
:1042C000804C9A46934670B491E8380007C810F0C5
:1042D000804F08BF13F0804F03D100F005F8FFF7BF
:1042E0006BFFF0BCBDE8008C20F07F4780EA030044
:1042F00023F07F4C07EB0C03A3F57C5300F0004048
:10430000A3F1FE0392F0000F00F0B38095F0000FD0
:1043100000F077802DE901494FEA11404FEA144639
:1043200021EA004800FB06FC24EA064708FB06F6E3
:1043300007FB08F800FB07F718EB06484CEB164C98
:104340004FEA124B18EB07484FEA15464CEB174063
:1043500022EA0B4E0BFB06FC25EA06470EFB06F68F
:1043600007FB0EFE0BFB07F71EEB064E4CEB164C45
:104370004FF000061EEB074E4CEB174B18EB0B08EB
:1043800040F1000018EB0E0B58EB000840F1000064
:104390008F1A4FF000013CBFC943661B14BFB5EB39
:1043A000040C00213CBFC943F61B4FEA17444EEAF8
:1043B0008E0E27EA04454FEA1C4704FB07622CEAED
:1043C000074C05FB07F70CFB05F604FB0CFC16EB92
:1043D000074642EB174216EB0C4642EB1C421BEB26
:1043E000060658EB0202414146EA9E0601D5BDE8A9
:1043F0000189B619524141EB0101A3F10103BDE866
:1044000001894FEA14454FEA114724EA054621EA9B
:10441000074C05FB07F406FB07F70CFB06F105FB51
:104420000CFC11EB074144EB17444FEA124711EB28
:104430000C4144EB1C4422EA074C05FB07F206FB47
:1044400007F70CFB06F605FB0CFC16EB074642EBE8
:10445000174216EB0C4642EB1C456A1854F100015A
:1044600048BF7047B619524141EB0101A3F1010366
:10447000704795F0000F37D04FEA11424FEA1447CA
:1044800021EA024624EA074C02FB07F106FB07F784
:104490000CFB06F402FB0CFC14EB074441EB174148
:1044A0004FEA154714EB0C4441EB1C4125EA074C3D
:1044B00002FB07F506FB07F70CFB06F602FB0CFCFC
:1044C00016EB074645EB174516EB0C4645EB1C4231
:1044D000121951F1000148BF7047B619524141EB22
:1044E0000101A3F1010370474FEA14454FEA114758
:1044F00024EA054621EA074C05FB07F106FB07F70E
:104500000CFB06F24FF0000605FB0CFC12EB074219
:1045100041EB174112EB0C4251EB1C4148BF704775
:10452000921841EB0101A3F101037047014800F02B
:10453000FEBA00007002002070B504460068816871
:10454000C943C90717D1816821F00101816001F0D9
:1045500003F805460AE000BF00F0FEFF401B0228FA
:1045600004D920688068C043C00706D020688068EE
:10457000C043C007F0D0002070BDA06A40F010001A
:10458000A062E06A40F00100E062012070BD00001E
:10459000F8B500260446009600688168C943C9073B
:1045A0002DD0816841F001018160164816490068EC
:1045B000B0FBF1F000E0401E00900028FBD100F0BD
:1045C000CBFF054616E000BF00F0C6FF401B0228E7
:1045D00010D920688068C043C0070BD0A06A40F0A3
:1045E0001000A062E06A40F00100E06284F82460FC
:1045F0000120F8BD20688068C043C007E4D10020D6
:10460000F8BD00001000002040420F002DE9FF5FC0
:104610000D46DDE90E9493464946DDF840A00AF0C8
:10462000D3F9DFF8A88041460AF040F80746206039
:10463000494628460AF0C8F941460AF037F80646C6
:104640006060494658460AF0BFF941460AF02EF824
:104650000546A060494603980AF0B6F941460AF0BB
:1046600025F88046E06050460AF01EF9814639463A
:104670000AF0AAF9164C21460AF018F80AF0D8F800
:1046800014490860484631460AF09EF921460AF06E
:104690000DF80AF0CDF810490860484629460AF09E
:1046A00093F921460AF002F80AF0C2F80B490860B3
:1046B000484641460AF088F9214609F0F7FF0AF01A
:1046C000B7F807490860BDE8FF9F0000DB0FC9404D
:1046D00000007A44C8000020CC000020D000002058
:1046E000D400002010B50346002003E05C5C60406D
:1046F000491C89B29142F9D310BDFEE72DE9F04182
:1047000088B00F460E9C01464FF47A7595FBF4F085
:104710009846164648430AF0C7F8039095FBF4F014
:1047200078430AF0C1F8049095FBF4F070430AF066
:10473000BBF8059095FBF4F000FB08F00AF0B4F824
:104740000C4C06904FF0FF31D4E90706656A0AF079
:1047500016FC03462188606904F1A402CDE9000239
:1047600002912A46314603A803F047FD08B0012014
:10477000BDE8F08194010020014800F0E5BB000095
:10478000B8060020014800F0DFBB0000FC06002056
:1047900030B590F840500124AC40C56B6C600468A3
:1047A00063604368102B036803D099600068C2609F
:1047B00030BD9A600068C16030BD00000A46014605
:1047C000014802F07DBB0000740600200A4610B5C7
:1047D0000146054802F08CFB002803D0BDE81040DC
:1047E00000F01FB810BD000074060020704710B51F
:1047F0004FF4005000F0A2FD4FF4804000F09EFD09
:10480000BDE810404FF4004000F098BD082000F0D3
:1048100095BD10B502F04AFFBDE81040202000F021
:104820008DBD72B6FEE700002DE9F05F04469A46A2
:1048300093460B9D006801210AF0A1FBDFF8B490BC
:1048400049460AF0C1F851460AF0BEF80A9909F043
:104850002DFF8046012160680AF091FB49460AF06D
:10486000B3F851460AF0B0F80A9909F01FFF07465D
:104870000121A0680AF083FB49460AF0A5F85146D9
:104880000AF0A2F80A9909F011FF06460121E06832
:104890000AF075FB49460AF097F851460AF094F879
:1048A0000A9909F003FF0146384609F08BFE4FF0E4
:1048B000FF3739460AF063FB04463146404609F0AB
:1048C00081FE39460AF05BFB0646214609F07AFE76
:1048D00039460AF054FB28600020686021463046C3
:1048E0000AF032FA594609F0E1FEA8600120BDE85D
:1048F000F09F0000DB0F49402DE9FF410546DDE94F
:104900000A08DDE90C7614464FF0FF310AF037FB58
:1049100021460AF059F80446294609F053FE029050
:104920000090204629460AF07DF903900190334615
:104930003A464146684603F0E9FCBDE8FF810000C5
:10494000F8B500250446009590F82400012808D009
:10495000012084F824002046FFF7EEFD060002D077
:1049600053E00220F8BDA06A20F4885040F0020015
:10497000A062022001F03CFA26490968B1FBF0F080
:10498000400000E0401E00900028FBD12046FFF7C9
:10499000FFFD2068816841F00801816000F0DCFDC6
:1049A000074608E000F0D8FDC01B0A2803D920689C
:1049B0008068000715D4206880680007F2D420685A
:1049C000816841F00401816000F0C6FD074612E0F5
:1049D00000F0C2FDC01B0A280DD92068806840077E
:1049E00009D5A06A20F0020040F01000A06284F80F
:1049F00024500120F8BD206880684007E8D4A06AF0
:104A000020F0020040F00100A06284F824503046FB
:104A1000F8BD00001000002070470000F8B5002429
:104A2000009490F824202546012A12D0012280F813
:104A300024204A681F23072A0DD20668776B521E6E
:104A400002EB820293409F430B6893401F437763BE
:104A500019E00220F8BD06680D2A0AD2376BD21F72
:104A600002EB820293409F430B6893401F433763DE
:104A700009E0F76A0D3A02EB820293409F430B680C
:104A800093401F43F7620A68072306680A2A0AD37D
:104A9000F7680A3A02EB420293409F438B689340C7
:104AA0001F43F76008E0376902EB420293409F43DF
:104AB0008B6893401F4337610A68102A01D0112A7E
:104AC00020D1124B02689A4217D193681B0219D465
:104AD000936843F4000393600968102912D10C49CC
:104AE0000C4A0968B1FBF2F101EB8101490000E0D9
:104AF000491E00910029FBD104E0816A41F02001A8
:104B00008162012480F824502046F8BD0024014031
:104B10001000002040420F0010B500F005F80149D8
:104B2000086010BD1C0000200068C06C704710B504
:104B3000044600684168890626D50168890723D59F
:104B4000A16AC90603D4A16A41F40071A162816817
:104B5000C1F34241072910D1217B71B9416821F08D
:104B600020014160A06A20F48070A062A06AC004A5
:104B700003D4A06A40F00100A0622046FFF7CCFFFA
:104B800021686FF0120008602068416809062ED580
:104B9000016849072BD5A16AC90603D4A16A41F46B
:104BA0000051A1628168C1F30231072909D041682F
:104BB000490515D48168C1F34241072910D1217BF1
:104BC00071B9416821F080014160A06A20F48050F1
:104BD000A062A06AC00503D4A06A40F00100A062F0
:104BE0002046FFF719FF21686FF00C00086020686D
:104BF000416849060DD50068C0070AD0A06A40F494
:104C00008030A062204600F093F821686FF0010028
:104C1000086010BD2DE9F0414FF0000704003D464B
:104C20007ED0A06A002628B9E66284F82460204677
:104C300000F080F82046FFF77FFCA16AC90600D487
:104C400020B1A06A40F01000A06269E0A16A21F4DE
:104C5000885141F00201A1626268E169237B0A4345
:104C600047EA43010A43A1684FF48077B94209D06B
:104C7000012907D05FF0000194F814C0BCF1010FC6
:104C800002D00AE03946F7E7F3B1A36A43F0200304
:104C9000A362E36A43F00103E3622368D3F804C02C
:104CA0002CF4694C4CEA010CC3F804C021688B68F1
:104CB000DFF870C003EA0C0313438B60A168B942AC
:104CC0000BD0012909D00CE0DFF85CC0A3690CEB24
:104CD00043330B4343F40061DFE7218A0D05A5F55B
:104CE00080152168CB6A23F470032B43CB622168C3
:104CF00089680E4B1940914208D1E662A16A21F001
:104D0000020141F00101A162BDE8F081A06A20F03A
:104D1000020040F01000A062E06A40F00100E06292
:104D20000120F1E7FDF7E1FF00E0FFFFFE0E1FFFAE
:104D30007047000000B585B00021009101910291FB
:104D4000039100681249884220D11248816941F4D8
:104D500000718161816901F400710491816941F000
:104D6000040181618069694600F0040004902020FC
:104D7000009003200190084800F0ECFA0022022184
:104D8000122001F003F8122000F0F2FF05B000BD80
:104D900000240140001002400008014070B50446A4
:104DA00090F8240001280DD0012084F8240020462A
:104DB000FFF7EEFB02004FF0000005D084F824005E
:104DC000104670BD022070BDA16A40F60163994390
:104DD00041F48071A162224D23682249AB4218D16F
:104DE0000E6816F4702F14D0A66A46F48016A662D8
:104DF0000E68760505D5A66A26F4005646F4805658
:104E0000A662A66AF6040AD5E66A26F00606E662F7
:104E100006E0A66A26F48016A6625E68E9E7E0620C
:104E200084F824006FF0020018602068436843F0A3
:104E30002003436020688368C3F34243072B05D1F6
:104E4000A84208D1096811F4702F04D0816841F498
:104E500080118160B4E7816841F4A001F9E70000A6
:104E6000002801400424014010B590F821100022D0
:104E7000022905D00421816380F82020012010BD83
:104E800001680B6823F00E030B6001680B6823F0C8
:104E900001030B6090F84030C46B012101FA03F369
:104EA000636080F8211080F82020104610BD0000BB
:104EB00010B590F821100024022903D00421816349
:104EC00001243DE001680A6822F00E020A600168D0
:104ED0000A6822F001020A601A4A0168914201D16F
:104EE000012121E0174A1432914201D110211BE027
:104EF000144A2832914201D1891515E0114A3C32F9
:104F0000914201D189140FE00E4A5032914202D1F0
:104F10004FF4803108E00B4A6432914202D14FF4E1
:104F2000801101E04FF08071064A083A516001217A
:104F300080F82110002180F82010416B01B18847D2
:104F4000204610BD080002402DE9F05FC16B0C68DF
:104F500001680B68D0F840C0042202FA0CF2494DF7
:104F6000DFF824A1494E4A4FDFF828B1DFF828E1E5
:104F700022422CD05A072AD50A68920603D40A681E
:104F800022F004020A600168A94201D1042219E05A
:104F9000514501D1402215E0B14202D14FF4806267
:104FA00010E0B94202D14FF480420BE0594502D1E2
:104FB0004FF4802206E0714502D14FF4800201E0F7
:104FC0004FF080622F4908394A60C16A3BE04FF0D8
:104FD000020808FA0CF818EA040F4FF000094FF025
:104FE000010235D05FEA837832D50B689B0605D481
:104FF0000B6823F00A030B6080F821200168A942A6
:1050000001D1022219E0514501D1202215E0B1421F
:1050100002D14FF4007210E0B94202D14FF40052B5
:105020000BE0594502D14FF4003206E0714502D140
:105030004FF4001201E04FF00072124908394A6043
:1050400080F82090816A00291AD0BDE8F05F0847F7
:10505000082505FA0CF5254212D01B0710D50B6860
:1050600023F00E030B6090F84010C36B02FA01F1BD
:105070005960826380F8212080F82090016BE2E77C
:10508000BDE8F09F080002401C00024030000240D2
:1050900044000240580002406C00024030B528B382
:1050A00008C8134914221944B1FBF2F18900C16305
:1050B00010498163022141771A6843F6F0718A43EF
:1050C000D0E900142143D0E902452C43214304696F
:1050D000214344692143846921431143196000211C
:1050E0004163012242770177084630BD012030BD7F
:1050F000F8FFFDBF0000024070B5044690F82000A4
:10510000002501280CD0012084F8200094F82160AB
:105110000020012E06D084F820000225284670BD0C
:10512000022070BD022684F82160A0632068066812
:1051300026F0010606602046FFF72AFBE06A0028F9
:105140002068016802D041F00E0106E021F0040160
:1051500001602068016841F00A010160206801686F
:1051600041F001010160D9E770B5044600F0F4F99F
:105170000546601C02D004480078044400F0ECF9B5
:10518000401BA042FAD370BD040000202DE9F0437B
:105190000023374F0F2566E001229A400A4060D075
:1051A00023F00304E619D6F808809C074FEA147C24
:1051B00005FA0CF909EA0804DFF8B880404502D185
:1051C0004FF0000816E0DFF8B080404502D14FF004
:1051D00001080FE0DFF8A480404502D14FF002083B
:1051E00008E0DFF89C80404502D14FF0030801E061
:1051F0004FF0040808FA0CF8A04515D1D6F808C0FD
:105200002CEA090CC6F808C01E4E3468944334607A
:10521000341D266896432660241D26689643266022
:10522000241D266896432660FF2A01D8064601E021
:1052300000F104064FEA830401D9A4F12004D6F852
:1052400000C005FA04F82CEA080C4FF0040808FA2C
:1052500004F84CEA080CC6F800C0C46824EA02044A
:10526000C46003F1010331FA03F295D1BDE8F08384
:105270000000014000080140000C01400010014006
:1052800000140140000401402DE9F0410346284C80
:1052900028484FF40045082B19D047146E10264AB1
:1052A000BB4225D031468B4231D029468B420CD1AE
:1052B000054600F03FF901284FF0080128460ED0BE
:1052C00000F038F970B110E06060BDE8F0810821AD
:1052D000064600F02FF9002829463046F0D100F0AC
:1052E00029F910B16068401EEEE76068401CEBE7EA
:1052F00039461546104600F01DF9012831460DD0FB
:10530000284600F017F968B10FE0A060DDE7154608
:10531000104600F00FF939460028F1D1284600F078
:1053200009F910B1A068401EEFE7A068401CECE747
:1053300014010020000C014000080140044910B590
:105340000A68024202D00860FFF79EFF10BD00000D
:10535000140401402DE9F84FDFF8B891002409F159
:10536000040A0AF1040B23460F270BF1040EC9E0CF
:105370000125A5402A40AA427DD1674ED1F804C03C
:10538000ACEB0608B44532D014DCBCF1030F3AD0C4
:1053900009DCBCF1000F2AD0BCF1010F1CD0BCF11C
:1053A000020F31D11DE0BCF1110F17D0BCF1120F6B
:1053B0002AD119E0B8F5881F19D006DCB8F5803F6E
:1053C00015D0B8F5801F1FD111E0B8F5001F0ED021
:1053D000B8F5041F18D10AE0CB6815E0CB681B1D97
:1053E00012E0CB6808330FE0CB680C330CE08B681D
:1053F0002BB1012B4FF0080303D0456104E00423D7
:1054000002E0056100E00023FF2A01D8064601E022
:1054100000F104064FEA840501D9A5F12005D6F86C
:10542000008007FA05FC28EA0C0803FA05F548EAAB
:105430000508C6F800804D68ED0062D5374DAE69AD
:1054400046F00106AE61AD6924F0030605F00105E2
:105450000095334D06EB050CDCF80850A607360F17
:1054600007FA06F825EA0805DFF8B880404503D1B9
:105470004FF0000817E044E0DFF8AC80404502D16F
:105480004FF001080FE0DFF8A480404502D14FF053
:10549000020808E0DFF89880404502D14FF0030889
:1054A00001E04FF0040808FA06F848EA0508CCF8CD
:1054B00008804D68D9F80060ED034D4601D51643CC
:1054C00000E096432E604D68DAF80060AD03554663
:1054D00001D5164300E096432E604D68DBF800606E
:1054E000ED025D4601D5164300E096432E604D68FF
:1054F000DEF80060AD02754601D5164300E0964324
:105500002E60641C0D682A46E5407FF431AFBDE88B
:10551000F88F00000004014000001110001002404C
:105520000000014000080140000C01400010014053
:10553000001401408068084000D001207047C26814
:1055400021EA02030A4043EA0241016170470AB1BD
:10555000016170470904FBE701488068704700005B
:105560000400002010B5040013D0242084F83D006E
:105570002068016821F001010160204600F048FB2D
:105580000020206484F83D0044F8300FA07320739D
:1055900010BD012010BD90F83D00704770B50400AB
:1055A00025D094F83D00002520B984F83C502046D1
:1055B00000F04AFB242084F83D002068016821F0B7
:1055C000010101602068016841F400410160206828
:1055D000016821F40041016000F07AFD4D4A6168E4
:1055E000914201D84C4900E04C49884201D2012047
:1055F00070BD4B492368B0FBF1F15E6826F03F06B1
:105600000E435E606368934206D94FF49673594324
:105610004FF47A73B1FBF3F12368491C1E6A26F03C
:105620003F06314319626168914210D84900401E1B
:10563000B0FBF1F2521CC2F30B02042A01D2042087
:1056400022E0B0FBF1F0401CC0F30B001CE0A268AC
:10565000F2B301EBC10303EB0116431EB3FBF6F3F8
:105660005B1C43F480431B0549D092B301EBC1029C
:1056700002EB0111401EB0FBF1F0401CC0F30B0027
:1056800040F4804040F400402168CA694CF6FF7342
:105690009A431043C861D4E90710014320680268A7
:1056A00022F0C00211430160D4E9030101432068E4
:1056B000826848F2FF339A4311438160D4E90501BF
:1056C00008432168CA6822F0FF021043C86001E065
:1056D0000EE016E02068016841F0010101602564D8
:1056E000202084F83D00256384F83E50002070BDE2
:1056F00001EB4106431EB3FBF6F35B1CB3E701204D
:10570000C2E701EB4101401EB0FBF1F0401CC0F3C9
:105710000B00B7E7A086010080841E0000093D0051
:1057200040420F002DE9FF4F81B089460446FFF744
:1057300013FF054694F83D004FF0010820287DD165
:105740001923012250492046009501F023FD00282D
:1057500074D194F83C00012870D0012084F83C00FA
:1057600020680168C90703D1016841F001010160A7
:105770002068016821F400610160242084F83D0064
:10578000002626644148E0624FF0011B2027206874
:10579000016841F48071016000950022594620465D
:1057A000049B01F0F7FC50B120680068C00502D5E9
:1057B0004FF400702064032005B0BDE8F08F21682D
:1057C00009F0FE000861FFF7C7FE21680546486939
:1057D0004969C0F34000C1F380214FF0A00A0FE0F7
:1057E000FFF7BAFE411B0498814200D808B984F83B
:1057F0003DA0216848694969C0F34000C1F3802198
:1058000094F83D20A02A02D008B90029E8D084F8F5
:105810003D7020684169C943890716D4016841F485
:1058200000710160206841698069192301221649CD
:105830002046009501F0AEFCB8B900E021E084F804
:105840003D7084F83C600020B6E7016841F40071C7
:10585000016021686FF480604861192301220A49C0
:105860002046009501F096FC08B10120A4E70398BA
:1058700008F1010880458AD384F83D7084F83C60C3
:10588000F3E7022098E70000020010000000FFFF8D
:105890002DE9FF4F83B00025DDE910799A46934644
:1058A0000446DDF848800095FFF756FE064694F85A
:1058B0003D0020287CD119230122854920460096ED
:1058C00001F068FC0028F5D194F83C0001286FD065
:1058D000012084F83C0020680168C90703D10168F1
:1058E00041F0010101602068016821F4006101605C
:1058F000222084F83D00402084F83E002564676241
:10590000A4F82A90608D20857248E062CDE9008677
:1059100053465A462046049901F044FB00287DD1A5
:10592000208DDFF8B491202768B1012814D0022817
:10593000206801681ED041F48061016020684169DF
:1059400080690090B6E02068416981690091016832
:1059500041F400710160ADE02068016821F48061CC
:10596000016072B62068416981690091016841F463
:1059700000710AE041F40061016072B6206841697B
:1059800081690091016821F48061016062B691E053
:10599000032868D801280CD0022843464FF00002A3
:1059A0004946204600960FD001F0F4FBB0BB10E052
:1059B0008BE032464146204601F06BFC70BB20680C
:1059C0000069616A08706CE001F0E4FB30BB72B6FC
:1059D00034E02068016821F48061016072B62068BB
:1059E0000069616A0870606A401C6062208D401E18
:1059F0002085608D401E6085384846F2A8110068F9
:105A0000B0FBF1F0C0EBC00000EB80000090401E46
:105A1000009008D020684069C04300E029E04007BA
:105A20000CD50098F3E744F8305F6773A5732069DD
:105A300040F02000206162B625731AE020680168FA
:105A400041F40071016020680069616A0870606A51
:105A5000401C6062218D491E2185618D491E618532
:105A600062B621681BE032464146204601F011FC37
:105A700018B1012007B0BDE8F08F20680069616AA5
:105A80000870606A401C6062218D491E2185618D0D
:105A9000491E618521684A69D24352070AD40969BF
:105AA0000170606A401C6062208D401E2085608D00
:105AB000401E6085208D00287FF46AAF84F83D7019
:105AC00084F83E5084F83C50D4E70220D2E700002E
:105AD000020010000000FFFF040001001000002081
